{
  "contractName": "Transactions",
  "abi": [
    {
      "anonymous": false,
      "inputs": [
        {
          "indexed": false,
          "internalType": "address",
          "name": "from",
          "type": "address"
        },
        {
          "indexed": false,
          "internalType": "address",
          "name": "receiver",
          "type": "address"
        },
        {
          "indexed": false,
          "internalType": "uint256",
          "name": "amount",
          "type": "uint256"
        },
        {
          "indexed": false,
          "internalType": "string",
          "name": "message",
          "type": "string"
        },
        {
          "indexed": false,
          "internalType": "uint256",
          "name": "timestamp",
          "type": "uint256"
        }
      ],
      "name": "Transfer",
      "type": "event"
    },
    {
      "inputs": [
        {
          "internalType": "address payable",
          "name": "receiver",
          "type": "address"
        },
        {
          "internalType": "uint256",
          "name": "amount",
          "type": "uint256"
        },
        {
          "internalType": "string",
          "name": "message",
          "type": "string"
        }
      ],
      "name": "addToBlockchain",
      "outputs": [],
      "stateMutability": "nonpayable",
      "type": "function"
    },
    {
      "inputs": [],
      "name": "getAllTransactions",
      "outputs": [
        {
          "components": [
            {
              "internalType": "address",
              "name": "sender",
              "type": "address"
            },
            {
              "internalType": "address",
              "name": "receiver",
              "type": "address"
            },
            {
              "internalType": "uint256",
              "name": "amount",
              "type": "uint256"
            },
            {
              "internalType": "string",
              "name": "message",
              "type": "string"
            },
            {
              "internalType": "uint256",
              "name": "timestamp",
              "type": "uint256"
            }
          ],
          "internalType": "struct Transactions.TransferStruct[]",
          "name": "",
          "type": "tuple[]"
        }
      ],
      "stateMutability": "view",
      "type": "function",
      "constant": true
    },
    {
      "inputs": [],
      "name": "getTransactionCount",
      "outputs": [
        {
          "internalType": "uint256",
          "name": "",
          "type": "uint256"
        }
      ],
      "stateMutability": "view",
      "type": "function",
      "constant": true
    }
  ],
  "bytecode": "0x608060405234801561001057600080fd5b50610d27806100206000396000f3fe608060405234801561001057600080fd5b50600436106100415760003560e01c806327506f53146100465780632e7700f014610064578063eb12da4a14610082575b600080fd5b61004e61009e565b60405161005b9190610618565b60405180910390f35b61006c61024f565b6040516100799190610649565b60405180910390f35b61009c60048036038101906100979190610817565b610258565b005b60606001805480602002602001604051908101604052809291908181526020016000905b8282101561024657838290600052602060002090600502016040518060a00160405290816000820160009054906101000a900473ffffffffffffffffffffffffffffffffffffffff1673ffffffffffffffffffffffffffffffffffffffff1673ffffffffffffffffffffffffffffffffffffffff1681526020016001820160009054906101000a900473ffffffffffffffffffffffffffffffffffffffff1673ffffffffffffffffffffffffffffffffffffffff1673ffffffffffffffffffffffffffffffffffffffff168152602001600282015481526020016003820180546101ab906108b5565b80601f01602080910402602001604051908101604052809291908181526020018280546101d7906108b5565b80156102245780601f106101f957610100808354040283529160200191610224565b820191906000526020600020905b81548152906001019060200180831161020757829003601f168201915b50505050508152602001600482015481525050815260200190600101906100c2565b50505050905090565b60008054905090565b600160008082825461026a9190610915565b9250508190555060016040518060a001604052803373ffffffffffffffffffffffffffffffffffffffff1681526020018573ffffffffffffffffffffffffffffffffffffffff16815260200184815260200183815260200142815250908060018154018082558091505060019003906000526020600020906005020160009091909190915060008201518160000160006101000a81548173ffffffffffffffffffffffffffffffffffffffff021916908373ffffffffffffffffffffffffffffffffffffffff16021790555060208201518160010160006101000a81548173ffffffffffffffffffffffffffffffffffffffff021916908373ffffffffffffffffffffffffffffffffffffffff16021790555060408201518160020155606082015181600301908161039c9190610b17565b506080820151816004015550507fc4b32d7ff75a51e487f3cbb5d3202f2efecca1f4c2b987e0039c1d3220b48a8333848484426040516103e0959493929190610c97565b60405180910390a1505050565b600081519050919050565b600082825260208201905092915050565b6000819050602082019050919050565b600073ffffffffffffffffffffffffffffffffffffffff82169050919050565b600061044482610419565b9050919050565b61045481610439565b82525050565b6000819050919050565b61046d8161045a565b82525050565b600081519050919050565b600082825260208201905092915050565b60005b838110156104ad578082015181840152602081019050610492565b838111156104bc576000848401525b50505050565b6000601f19601f8301169050919050565b60006104de82610473565b6104e8818561047e565b93506104f881856020860161048f565b610501816104c2565b840191505092915050565b600060a083016000830151610524600086018261044b565b506020830151610537602086018261044b565b50604083015161054a6040860182610464565b506060830151848203606086015261056282826104d3565b91505060808301516105776080860182610464565b508091505092915050565b600061058e838361050c565b905092915050565b6000602082019050919050565b60006105ae826103ed565b6105b881856103f8565b9350836020820285016105ca85610409565b8060005b8581101561060657848403895281516105e78582610582565b94506105f283610596565b925060208a019950506001810190506105ce565b50829750879550505050505092915050565b6000602082019050818103600083015261063281846105a3565b905092915050565b6106438161045a565b82525050565b600060208201905061065e600083018461063a565b92915050565b6000604051905090565b600080fd5b600080fd5b600061068382610419565b9050919050565b61069381610678565b811461069e57600080fd5b50565b6000813590506106b08161068a565b92915050565b6106bf8161045a565b81146106ca57600080fd5b50565b6000813590506106dc816106b6565b92915050565b600080fd5b600080fd5b7f4e487b7100000000000000000000000000000000000000000000000000000000600052604160045260246000fd5b610724826104c2565b810181811067ffffffffffffffff82111715610743576107426106ec565b5b80604052505050565b6000610756610664565b9050610762828261071b565b919050565b600067ffffffffffffffff821115610782576107816106ec565b5b61078b826104c2565b9050602081019050919050565b82818337600083830152505050565b60006107ba6107b584610767565b61074c565b9050828152602081018484840111156107d6576107d56106e7565b5b6107e1848285610798565b509392505050565b600082601f8301126107fe576107fd6106e2565b5b813561080e8482602086016107a7565b91505092915050565b6000806000606084860312156108305761082f61066e565b5b600061083e868287016106a1565b935050602061084f868287016106cd565b925050604084013567ffffffffffffffff8111156108705761086f610673565b5b61087c868287016107e9565b9150509250925092565b7f4e487b7100000000000000000000000000000000000000000000000000000000600052602260045260246000fd5b600060028204905060018216806108cd57607f821691505b6020821081036108e0576108df610886565b5b50919050565b7f4e487b7100000000000000000000000000000000000000000000000000000000600052601160045260246000fd5b60006109208261045a565b915061092b8361045a565b9250827fffffffffffffffffffffffffffffffffffffffffffffffffffffffffffffffff038211156109605761095f6108e6565b5b828201905092915050565b60008190508160005260206000209050919050565b60006020601f8301049050919050565b600082821b905092915050565b6000600883026109cd7fffffffffffffffffffffffffffffffffffffffffffffffffffffffffffffffff82610990565b6109d78683610990565b95508019841693508086168417925050509392505050565b6000819050919050565b6000610a14610a0f610a0a8461045a565b6109ef565b61045a565b9050919050565b6000819050919050565b610a2e836109f9565b610a42610a3a82610a1b565b84845461099d565b825550505050565b600090565b610a57610a4a565b610a62818484610a25565b505050565b5b81811015610a8657610a7b600082610a4f565b600181019050610a68565b5050565b601f821115610acb57610a9c8161096b565b610aa584610980565b81016020851015610ab4578190505b610ac8610ac085610980565b830182610a67565b50505b505050565b600082821c905092915050565b6000610aee60001984600802610ad0565b1980831691505092915050565b6000610b078383610add565b9150826002028217905092915050565b610b2082610473565b67ffffffffffffffff811115610b3957610b386106ec565b5b610b4382546108b5565b610b4e828285610a8a565b600060209050601f831160018114610b815760008415610b6f578287015190505b610b798582610afb565b865550610be1565b601f198416610b8f8661096b565b60005b82811015610bb757848901518255600182019150602085019450602081019050610b92565b86831015610bd45784890151610bd0601f891682610add565b8355505b6001600288020188555050505b505050505050565b610bf281610439565b82525050565b6000610c13610c0e610c0984610419565b6109ef565b610419565b9050919050565b6000610c2582610bf8565b9050919050565b6000610c3782610c1a565b9050919050565b610c4781610c2c565b82525050565b600082825260208201905092915050565b6000610c6982610473565b610c738185610c4d565b9350610c8381856020860161048f565b610c8c816104c2565b840191505092915050565b600060a082019050610cac6000830188610be9565b610cb96020830187610c3e565b610cc6604083018661063a565b8181036060830152610cd88185610c5e565b9050610ce7608083018461063a565b969550505050505056fea2646970667358221220ded36018931836d56a4da2a436f0b86d64db379d6a7df60acbb2427fc29d942864736f6c634300080f0033",
  "immutableReferences": {},
  "source": "// SPDX-License-Identifier: UNLICENSED\r\n\r\npragma solidity ^0.8.15;\r\n\r\n\r\n\r\ncontract Transactions {\r\n    uint256 transactionCount;\r\n\r\n    event Transfer(address from, address receiver, uint amount, string message, uint256 timestamp);\r\n\r\n    struct TransferStruct {\r\n        address sender;\r\n        address receiver;\r\n        uint amount;\r\n        string message;\r\n        uint256 timestamp;\r\n\r\n    }\r\n\r\n    TransferStruct[] transactions;\r\n\r\n    function addToBlockchain(address payable receiver, uint amount, string memory message) public {\r\n        transactionCount += 1;\r\n        transactions.push(TransferStruct(msg.sender, receiver, amount, message, block.timestamp));\r\n\r\n        emit Transfer(msg.sender, receiver, amount, message, block.timestamp);\r\n    }\r\n\r\n    function getAllTransactions() public view returns (TransferStruct[] memory) {\r\n        return transactions;\r\n    }\r\n\r\n    function getTransactionCount() public view returns (uint256) {\r\n        return transactionCount;\r\n    }\r\n}",
  "sourcePath": "c:\\Users\\kevvv\\github\\project_web3.0\\smart_contract\\contracts\\Transactions.sol",
  "compiler": {
    "name": "solc",
    "version": "0.8.15+commit.e14f2714.Emscripten.clang"
  },
  "schemaVersion": "3.4.8",
  "updatedAt": "2022-08-16T03:45:26.437Z",
  "networkType": "ethereum",
  "devdoc": {
    "kind": "dev",
    "methods": {},
    "version": 1
  },
  "userdoc": {
    "kind": "user",
    "methods": {},
    "version": 1
  }
}